:100000000C942A000C9447000C9447000C94470071
:100010000C9447000C9447000C9447000C94470044
:100020000C9447000C9447000C9447000C94470034
:100030000C9447000C9447000C9447000C94470024
:100040000C9447000C9447000C9447000C94470014
:100050000C94470011241FBECFE5D4E0DEBFCDBF16
:1000600010E0A0E6B0E0E0E1F0E102C005900D9202
:10007000AA39B107D9F710E0AAE9B0E001C01D9292
:10008000AF39B107E1F70E9462010C9406080C94A5
:100090000000662311F0A89A01C0A898A998A49A14
:1000A000A59AA69AA79AAF98AE98AD98AC9887FDF6
:1000B000AF9A86FDAE9A85FDAD9A84FDAC9AAA9A58
:1000C00000C0AA98AF98AE98AD98AC9883FDAF9A4F
:1000D00082FDAE9A81FDAD9A80FDAC9AAA9A00C0CD
:1000E000AA98AC9AAD9AAE9AAF9A0895882311F067
:1000F000A89A01C0A898A99AA498A598A698A79884
:10010000AA9A00C09C9B02C080E101C080E09D993A
:1001100080629E9980649F998068AA9800C0AA9A7C
:1001200000C09C9981609D9982609E9984609F998E
:100130008860AA98089580E00E94760087FDFBCF32
:1001400000C080E00E94760008951F93182F0E943F
:100150009B00812F60E00E9449001F9108951F932A
:10016000182F0E949B00812F61E00E9449001F917F
:100170000895662311F4805801C080540E94A500A0
:1001800008950E949B0090E0089581E00E94A500E0
:10019000089582E00E94A50008951F93182F0E94E1
:1001A0009B001A3049F4803410F080E001C080E4F4
:1001B00080580E94A50004C0812F61E00E94490080
:1001C0001F910895CF93DF93EC0102C00E94CD00F0
:1001D00089918823D9F7DF91CF910895CF93DF9349
:1001E000EC0102C00E94CD00FE012196849188237B
:1001F000C9F7DF91CF9108951F93182FA09AA19A64
:10020000A29AA49AA59AA69AA79A80EA9FE0019733
:10021000F1F7AD9AAC9AAA9A00C0AA9880EE94E041
:100220000197F1F7AA9A00C0AA9880E190E0FC013A
:100230003197F1F7AA9A00C0AA98FC013197F1F71B
:10024000AC98AA9A00C0AA980197F1F788E20E9498
:10025000A50088E00E94A5000E94C50086E00E94DB
:10026000A500812F0E94A5001F91089515B814B80C
:1002700097B1907E97B997B18770892B87B9369AD5
:10028000349BFECF349A24B135B1C901089580E47E
:1002900087B98EE886B9089520E030E044E752E45B
:1002A0000E9493020E948D0320E030E080E090E005
:1002B00005C0FC013197F1F72F5F3F4F2617370735
:1002C000C4F308954F925F926F927F928F929F92A4
:1002D000AF92BF92CF92DF92EF92FF920F931F9354
:1002E000CF93DF931ABA8FEF87BB8CE00E94FC009C
:1002F0000E94C50080E487B98EE886B988249924D5
:100300005AE9C52E50E0D52E40E6A42E40E0B42E8A
:1003100030E2532E24E0422E98E1792E84E2682EBA
:1003200015B814B887B1807E87B9389A369A349B4D
:10033000FECF349AE4B0F5B015B814B887B1807E1A
:1003400087B9399A369A349BFECF349A04B115B1E5
:1003500015B814B887B1807E87B987B1836087B933
:10036000369A349BFECF349AC4B1D5B180E060E0B8
:100370000E94B9008DB79EB70A970FB6F8949EBF3A
:100380000FBE8DBFEDB7FEB73196ADB7BEB71296B3
:10039000DC92CE921197B382A282F582E482178317
:1003A0000683D187C0870E942E058DB79EB70A9617
:1003B0000FB6F8949EBF0FBE8DBFC6010E94E2002B
:1003C0009FE5E91691E0F906F4F0AAE9EA16A1E042
:1003D000FA06CCF4B1E001361B07ACF081E00C3931
:1003E00018078CF491E0CF3AD9076CF0A1E0CA3E2F
:1003F000DA074CF418BA88E061E00E94B90088E797
:1004000090E00E94E200B5EAEB16B1E0FB0604F1D1
:1004100080EEE81681E0F8060CF03EC091E00F3562
:100420001907D4F1A1E00A391A07B4F5B1E0C139CE
:10043000DB0794F181E0CC3CD80774F568BA88E01A
:1004400061E00E94B9008DE790E00E94E20024C0C4
:1004500093E2E91691E0F906FCF0AEE5EA16A1E0B8
:10046000FA06D4F4B1E00F351B070CF44BC00A595F
:1004700011400CF047C091E0CB39D9070CF442C0D1
:10048000C65DD1400CF03EC078BA88E061E00E94C1
:10049000B90082E890E034C0BFE5EB16B1E0FB069E
:1004A0008CF18AE9E81681E0F80664F591E0053AF6
:1004B0001907A4F1A1E0003E1A078CF4B1E0C1399C
:1004C000DB076CF081E0CC3CD8074CF448BA88E0FC
:1004D00061E00E94B90087E890E00E94E2000856BF
:1004E000114084F4A1E0CB39DA0764F0C65DD14055
:1004F0004CF458BA88E061E00E94B9008CE890E0C2
:100500000E94E20080E090E0F4013197F1F701965B
:1005100082319105C9F70E94C50002CF81E00D32FA
:10052000180784F3DCCFA0E2B0E0E9E9F2E00C9434
:10053000CF0769837A838B839C832D833E834F838C
:100540005887CE010196BE01675F7F4F0E94B604B7
:10055000CE010596BE016F5E7F4F0E94B60499855D
:10056000923088F089898230C8F0943019F4823052
:1005700051F404C0843029F4923081F482E990E08F
:10058000C6C0923049F420E09A858A89981321E008
:100590002A87CE010996BBC0823049F420E09A85B3
:1005A0008A89981321E02A8BCE014196B0C02D8410
:1005B0003E844F8458886D887E888F88988CEE247E
:1005C000FF248701AA24BB24650140E050E060E0DD
:1005D00070E0E0E0F0E0C10181709070892BE9F0FB
:1005E000E60CF71C081D191D9A01AB012A0D3B1DD5
:1005F0004C1D5D1D80E090E0A0E0B0E0E614F70443
:100600000805190520F481E090E0A0E0B0E0BA010F
:10061000A901480F591F6A1F7B1FAA0CBB1CCC1CC9
:10062000DD1C97FE08C081E090E0A0E0B0E0A82AC1
:10063000B92ACA2ADB2A3196E032F10549F0660C64
:10064000771C881C991C5694479437942794C3CFE1
:10065000FA85EA892B893C898B859C85280F391F6F
:100660002E5F3F4F17C0CA0181709070892B61F0D7
:1006700016950795F794E79480E090E0A0E0B0E845
:10068000E82AF92A0A2B1B2B7695679557954795EB
:100690002F5F3F4F77FDE7CF0CC0440F551F661FFC
:1006A000771F17FD4160EE0CFF1C001F111F21502A
:1006B0003040403090E0590790E0690790E47907B6
:1006C00060F32B8F3C8FDB01CA018F779070A07095
:1006D000B07080349105A105B10561F447FD0AC0F1
:1006E000E114F1040105110529F0405C5F4F6F4FE3
:1006F0007F4F40781A8EFE1711F081E08A8F4D8F60
:100700005E8F6F8F78A383E0898FCE0149960E9418
:10071000E103A096E2E10C94EB07ACE0B0E0E3E982
:10072000F3E00C94DF0769837A838B839C83CE018B
:100730000196BE016B5F7F4F0E94B6048D818230AF
:1007400061F1823050F1843021F48E81882351F19F
:100750002EC02F81388537FD20C06E812F313105A5
:100760001CF06623F9F023C08EE190E0821B930B0E
:1007700029853A854B855C8504C056954795379504
:1007800027958A95D2F76623B1F05095409530951C
:1007900021953F4F4F4F5F4F0EC020E030E040E0CB
:1007A00050E009C02FEF3FEF4FEF5FE704C020E0BC
:1007B00030E040E050E8B901CA012C96E2E00C9428
:1007C000FB07DF92EF92FF920F931F93FC01E480EF
:1007D000F58006811781D1808081823048F480E0E5
:1007E00090E0A0E1B0E0E82AF92A0A2B1B2BA5C073
:1007F000843009F49FC0823021F4EE24FF24870165
:1008000005C0E114F1040105110519F4E0E0F0E080
:1008100096C0628173819FEF623879070CF05BC0EC
:1008200022E83FEF261B370B2A3131052CF020E060
:1008300030E040E050E02AC0B801A701022E04C019
:1008400076956795579547950A94D2F781E090E0A1
:10085000A0E0B0E004C0880F991FAA1FBB1F2A9513
:10086000D2F70197A109B1098E219F21A023B123BD
:100870000097A105B10521F081E090E0A0E0B0E093
:100880009A01AB01282B392B4A2B5B2BDA01C901CA
:100890008F779070A070B07080349105A105B1057C
:1008A00039F427FF09C0205C3F4F4F4F5F4F04C012
:1008B000215C3F4F4F4F5F4FE0E0F0E02030A0E081
:1008C0003A07A0E04A07A0E45A0710F0E1E0F0E0A0
:1008D00079018A0127C06038710564F5FB01E15890
:1008E000FF4FD801C7018F779070A070B07080342F
:1008F0009105A105B10539F4E7FE0DC080E490E053
:10090000A0E0B0E004C08FE390E0A0E0B0E0E80E2B
:10091000F91E0A1F1B1F17FF05C016950795F794B0
:10092000E794319687E016950795F794E7948A95B2
:10093000D1F705C0EE24FF248701EFEFF0E06E2F22
:10094000679566276795902F9F77D794DD24D79476
:100950008E2F8695492F462B582F5D29B701CA0146
:100960001F910F91FF90EF90DF900895FC01DB0144
:10097000408151812281622F6F7770E0221F2227F0
:10098000221F9381892F880F822B282F30E0991FF7
:100990009927991F11969C93119721153105A9F557
:1009A000411551056105710511F482E037C082E8F7
:1009B0009FEF13969C938E9312979A01AB0167E079
:1009C000220F331F441F551F6A95D1F783E08C9384
:1009D0000DC0220F331F441F551F12968D919C91FD
:1009E0001397019713969C938E931297203080E073
:1009F000380780E0480780E4580758F314962D9391
:100A00003D934D935C93179708952F3F310579F4EB
:100A1000411551056105710519F484E08C93089521
:100A200064FF03C081E08C9312C01C9210C02F574A
:100A3000304013963C932E93129783E08C9387E07B
:100A4000440F551F661F771F8A95D1F7706414965F
:100A50004D935D936D937C9317970895AEE0B0E04E
:100A6000E4E3F5E00C94DD070D891E8986E08C83B4
:100A70001A8309838FEF9FE79E838D839E01275EF4
:100A80003F4FCE0101966F89788DA9010E945205D2
:100A90002F813885020F131FF80110822E96E4E093
:100AA0000C94F907ABE0B0E0E8E5F5E00C94CF0773
:100AB0003C012B015A01FC0117821682838181FDC2
:100AC00003C06FEF7FEFC6C19AE0892E1E01089424
:100AD000211C311CF3012381F20123FD859123FFA9
:100AE00081912F01882309F4B2C1853239F423FDA5
:100AF000859123FF81912F01853229F490E0B30184
:100B00000E944507E7CF982FFF24EE249924FFE1A8
:100B1000FF15D0F09B3269F09C3228F4903259F0E6
:100B2000933291F40EC09D3249F0903369F441E064
:100B300024C052E0F52A84E0F82A28C098E0F92A77
:100B400025C0E0E1FE2A22C0F7FC29C0892F80538E
:100B50008A3070F4F6FE05C0989C902C1124980EF3
:100B600015C0E89CE02C1124E80EF0E2FF2A0EC02C
:100B70009E3229F4F6FC6BC140E4F42A07C09C368F
:100B800019F450E8F52A02C0983649F4F20123FD21
:100B9000959123FF91912F01992309F0B8CF892FC7
:100BA0008554833018F08052833038F444E050E0AC
:100BB000A40EB51E5FE359830FC0933631F093370F
:100BC00079F0933509F056C020C0F5018081898302
:100BD00042E050E0A40EB51E610101E010E012C039
:100BE000F501C080D180F6FC03C06FEF7FEF02C03B
:100BF000692D70E042E050E0A40EB51EC6010E94CF
:100C00003A078C015FE7F52214C0F501C080D1805E
:100C1000F6FC03C06FEF7FEF02C0692D70E042E089
:100C200050E0A40EB51EC6010E942F078C0150E8AB
:100C3000F52AF3FE07C01AC080E290E0B3010E94DB
:100C40004507EA948E2D90E008171907A8F30EC007
:100C5000F601F7FC8591F7FE81916F0190E0B301F9
:100C60000E944507E110EA9401501040011511055A
:100C700079F7EAC0943611F0993669F5F7FE08C0A5
:100C8000F501208131814281538184E090E00AC0E6
:100C9000F501808191819C01442737FD4095542FB7
:100CA00082E090E0A80EB91E9FE6F92257FF09C026
:100CB00050954095309521953F4F4F4F5F4FE0E85D
:100CC000FE2ACA01B901A1012AE030E00E947107A1
:100CD000D82ED21840C0953729F41F2D1F7E2AE048
:100CE00030E01DC01F2D197F9F3661F0903720F432
:100CF000983509F0ACC00FC0903739F0983709F03B
:100D0000A6C004C028E030E00AC0106114FD1460E1
:100D100020E130E004C014FD166020E132E017FF4E
:100D200008C0F501608171818281938144E050E0C7
:100D300008C0F50180819181BC0180E090E042E033
:100D400050E0A40EB51EA1010E947107D82ED21842
:100D50008FE7F82EF122F6FE0BC05EEFF522D914D4
:100D600038F4F4FE07C0F2FC05C08FEEF82202C092
:100D70001D2D01C0192DF4FE0DC0FE01ED0DF11D5C
:100D80008081803319F499EEF92208C01F5FF2FECA
:100D900005C003C08F2D867809F01F5F0F2DF3FC6F
:100DA00014C0F0FE0FC01E1510F09D2C0BC09D2C22
:100DB0009E0C911A1E2D06C080E290E0B3010E94A5
:100DC00045071F5F1E15C0F304C01E1510F4E11A7D
:100DD00001C0EE2404FF0FC080E390E0B3010E9445
:100DE000450702FF1DC001FD03C088E790E00EC06B
:100DF00088E590E00BC0802F867891F001FF02C05B
:100E00008BE201C080E2F7FC8DE290E0B3010E942A
:100E1000450706C080E390E0B3010E9445079A941D
:100E2000D914C0F3DA94F101ED0DF11D808190E049
:100E3000B3010E944507DD20A9F706C080E290E0DB
:100E4000B3010E944507EA94EE20C1F743CEF301B7
:100E500066817781CB012B96E2E10C94EB07FC01D4
:100E60000590615070400110D8F7809590958E0FD5
:100E70009F1F0895FC016150704001900110D8F748
:100E8000809590958E0F9F1F08950F931F93CF937A
:100E9000DF938C01EB018B8181FF1BC082FF0DC0B2
:100EA0002E813F818C819D812817390764F4E88168
:100EB000F9810193F983E88306C0E885F985802FDD
:100EC0000995892B31F48E819F8101969F838E83B2
:100ED00002C00FEF1FEFC801DF91CF911F910F915B
:100EE0000895FA01AA27283051F1203181F1E894C0
:100EF0006F936E7F6E5F7F4F8F4F9F4FAF4FB1E00D
:100F00003ED0B4E03CD0670F781F891F9A1FA11D07
:100F1000680F791F8A1F911DA11D6A0F711D811D08
:100F2000911DA11D20D009F468943F912AE0269FCD
:100F300011243019305D3193DEF6CF010895462F2C
:100F40004770405D4193B3E00FD0C9F7F6CF462F0D
:100F50004F70405D4A3318F0495D31FD4052419376
:100F600002D0A9F7EACFB4E0A69597958795779533
:100F70006795BA95C9F700976105710508959B01BA
:100F8000AC010A2E06945795479537952795BA9543
:100F9000C9F7620F731F841F951FA01D08952F921C
:100FA0003F924F925F926F927F928F929F92AF92F9
:100FB000BF92CF92DF92EF92FF920F931F93CF9346
:100FC000DF93CDB7DEB7CA1BDB0B0FB6F894DEBFDD
:100FD0000FBECDBF09942A88398848885F846E8403
:100FE0007D848C849B84AA84B984C884DF80EE804D
:100FF000FD800C811B81AA81B981CE0FD11D0FB656
:10100000F894DEBF0FBECDBFED010895F894FFCF79
:10101000783D2534642C20793D2534642C0A7A3DB2
:10102000253464202020200053544F50004652574E
:1010300044004241434B004C454654005249474806
:0A1040005400000000000000000052
:00000001FF
