S01500005265616C6179436F6E74726F6C2E73726563D0
S11300000C942A000C943F000C943F000C943F0085
S11300100C943F000C943F000C943F000C943F0060
S11300200C943F000C943F000C943F000C943F0050
S11300300C943F000C943F000C943F000C943F0040
S11300400C943F000C943F000C943F000C943F0030
S11300500C943F0011241FBECFE5D4E0DEBFCDBF1A
S113006010E0A0E6B0E0EEE0F1E002C005900D92F1
S1130070A837B107D9F70E9460000C9485000C944E
S1130080000089B910BC80B5866880BD88E18AB952
S113009008955F9BFECF8CB108955D9BFECF8CB914
S11300A00895CF93DF93EC018881882331F0219662
S11300B00E944D0089918111FBCFDF91CF9108956A
S11300C08FE187BB82E190E00E9441002FE789EA3B
S11300D093E0215080409040E1F700C0000081E0AF
S11300E088BBC1E00E9449008F7D873531F480E6EA
S11300F090E00E94510018BAF5CF813499F78BE64D
S111010090E00E945100C8BBEDCFF894FFCFF1
S113010E20466F72776172640A0D00204C65667426
S10B011E205475726E0A0D00F5
S9030000FC
